:020000040800F2
:10000000A804002051010008CD2900082922000879
:10001000C9290008E1010008E934000800000000D7
:100020000000000000000000000000004533000850
:10003000E501000800000000512A0008A53300086F
:100040006B0100086B0100086B0100088D2F000890
:100050006B0100086B0100086B0100086B010008D0
:100060006B0100086B0100086B0100086B010008C0
:100070006B0100086B0100086B0100086B010008B0
:100080006B0100086B0100086B0100086B010008A0
:100090006B0100086B0100086B0100086B01000890
:1000A0006B0100086B0100086B0100086B01000880
:1000B0006B0100086B0100086B0100086B01000870
:1000C0006B0100086B0100089D2F00086B01000800
:1000D0006B0100086B0100086B0100086B01000850
:1000E0006B0100086B0100086B0100086B01000840
:1000F0006B0100086B0100086B0100086B01000830
:100100006B0100086B0100086B0100086B0100081F
:100110006B0100086B0100086B0100086B0100080F
:100120006B0100086B0100086B0100086B010008FF
:100130006B0100086B0100086B010008DFF80CD0B0
:1001400000F03CF800480047C1350008A804002032
:100150000648804706480047FEE7FEE7FEE7FEE761
:10016000FEE7FEE7FEE7FEE7FEE7FEE7693400088C
:100170003D01000840EA01039B0703D009E008C9DC
:10018000121F08C0042AFAD203E011F8013B00F85C
:10019000013B521EF9D27047D2B201E000F8012BA8
:1001A000491EFBD270470022F6E710B513460A46F7
:1001B00004461946FFF7F0FF204610BD064C074DD8
:1001C00006E0E06840F0010394E807009847103427
:1001D000AC42F6D3FFF7B6FF2437000844370008D7
:1001E000FFE7FEE77047000081B0EFF3108072B6C2
:1001F0000090FFE7FEE7000080B584B00146039061
:1002000000208DF80B00039890F82500022801913A
:1002100007D0FFE703980421C16301208DF80B008C
:1002200042E003980068016821F00E010160039824
:100230000068016821F0010101600398806C016889
:1002400021F4807101600398016C406C00F01C0087
:10025000012202FA00F048600398C16C006D48600A
:100260000398406D00280BD0FFE70398406D0168AC
:1002700021F4807101600398816DC06D4860FFE7D3
:100280000398012180F82510FFE70398002180F8EA
:100290002410FFE70398806B002804D0FFE7039841
:1002A000816B8847FFE7FFE79DF80B0004B080BD36
:1002B00080B584B001460390009100F0E3F902900C
:1002C0000398019001980130002809D0FFE740F21F
:1002D0000C00C2F200000078019908440190FFE789
:1002E000FFE700F0CFF9DDF808E0A0EB0E00DDF845
:1002F00004E0704501D2FFE7F3E704B080BD0000E1
:100300008BB00A4603460A90099100200890059296
:100310000493FFE7099800680899C840002800F096
:100320008E81FFE7099800680899012202FA01F11D
:10033000084007900798002800F07D81FFE70998A2
:10034000406800F00300012807D0FFE709984068E3
:1003500000F0030002282FD1FFE70A98806806907A
:1003600008984000032101FA00F0069921EA0000F4
:1003700006900998C0680899490088400699084382
:10038000069006980A9988600A984068069008982E
:10039000012101FA00F0069921EA0000069009986F
:1003A0004068C0F3001008998840069908430690F9
:1003B00006980A994860FFE70998406800F0030032
:1003C000032818D0FFE70A98C068069008984000F4
:1003D000032101FA00F0069921EA0000069009982D
:1003E0008068089949008840069908430690069855
:1003F0000A99C860FFE70998406800F003000228E6
:1004000026D1FFE70A9808996FF0030202EA51012A
:100410000844006A0690089800F0070080000F2149
:1004200001FA00F0069921EA000006900998006997
:10043000089901F007018900884006990843069051
:1004400006980A99089B02EA530211440862FFE7E2
:100450000A980068069008984000032101FA00F00D
:10046000069921EA000006900998406800F0030010
:1004700008994900884006990843069006980A9909
:100480000860099880798007002800F0D380FFE792
:10049000089820F003000821C4F20101405806909A
:1004A000089800F0030080000F2101FA00F006997F
:1004B00021EA000006900A98B0F1904F03D1FFE7BF
:1004C0000020039034E00A9840F20041C4F6000195
:1004D000884203D1FFE70120029026E00A9840F607
:1004E0000001C4F60001884203D1FFE70220019019
:1004F00018E00A9840F60041C4F60001884203D192
:10050000FFE7032000900AE00A9841F20001C4F6D8
:1005100000010722884208BF04220092FFE70098EA
:100520000190FFE701980290FFE702980390FFE730
:100530000398089901F0030189008840069908434F
:1005400006900698089921F003010822C4F20102DE
:10055000885040F60000C5F6000000680690079835
:10056000069921EA0000069009988079C0060028C3
:1005700005D5FFE70798069908430690FFE7069818
:1005800040F60001C5F60001086040F60400C5F61B
:100590000000006806900798069921EA000006907E
:1005A000099880798006002805D5FFE70798069905
:1005B00008430690FFE7069840F60401C5F60001DF
:1005C000086040F68000C5F60000006806900798B5
:1005D000069921EA0000069009988079C007002852
:1005E00005D0FFE70798069908430690FFE70698AD
:1005F00040F68001C5F60001086040F68400C5F6AB
:100600000000006806900798069921EA000006900D
:10061000099880798007002805D5FFE70798069993
:1006200008430690FFE7069840F68401C5F60001EE
:100630000860FFE7FFE70898013008906AE60BB012
:100640007047000080B585B013468C4686460490FE
:10065000ADF80E108DF80D209DF80D0000280293C6
:10066000CDF804C0CDF800E005D0FFE7BDF80E00DE
:100670000499886104E0BDF80E0004998862FFE7E0
:1006800005B080BD40F2A400C2F2000000687047CF
:1006900040F21000C2F200000068704740F20C0007
:1006A000C2F20000007840F2A401C2F200010A6820
:1006B000104408607047000080B582B000208DF8BB
:1006C000070044F20000C5F60000016841F48071A3
:1006D0000160032000F08AF8012000F00FF80028E4
:1006E00004D0FFE701208DF8070002E000F04CF88D
:1006F000FFE79DF8070002B080BD000080B584B020
:100700000146039000208DF80B0040F20C00C2F26D
:1007100000000078002801912ED0FFE700F0B8FB20
:1007200040F20C0EC2F2000E9EF800E04FF47A7117
:10073000B1FBFEF1B0FBF1F001F06CFD002816D129
:10074000FFE703980F280DD8FFE703994FF0FF301C
:10075000002200F027F8039840F21001C2F20001D5
:10076000086003E001208DF80B00FFE703E00120A3
:100770008DF80B00FFE703E001208DF80B00FFE789
:100780009DF80B0004B080BD7047000080B582B0BA
:1007900001468DF807009DF90700009102F0A6FEC2
:1007A00002B080BD80B58AB013468C4686468DF86F
:1007B0002700089107920593CDF810C0CDF80CE002
:1007C00002F0B0FE06909DF927000699089A079B53
:1007D0000290084611461A4602F0FAF80299019072
:1007E0000846019902F0A6FE0AB080BD80B582B02D
:1007F000014601900198009102F0C2FE02B080BD56
:1008000040F20040C5F60000006800F4C060704788
:1008100040F20040C5F60000016841F480710160BB
:100820007047000080B58AB00146099000208DF81D
:100830001F008DF81E0009980068400600280391EB
:100840003AD5FFE70998006B0028029017D0FFE720
:100850000298B0F5800F0AD0FFE70298B0F5000FBC
:1008600015D0FFE70298B0F5400F0FD010E00C2034
:10087000C5F60000016841F4803101600CE0099880
:10088000043002F001F98DF81F0005E004E003E0F8
:1008900001208DF81F00FFE79DF81F00002805D1FB
:1008A000FFE70998006B01F0C3FF04E09DF81F000B
:1008B0008DF81E00FFE7FFE7099800680005002893
:1008C00057D5FFE701F034FD06900698DDF824E0E7
:1008D000DEF840E0704546D0FFE7FFF799FFDDF80E
:1008E00018E0BEF1000F05D1FFE70998006C01F098
:1008F0008FFF33E09020C5F600000168059101905C
:1009000001F0FCFC01F0C0FE059820F4407009994C
:10091000096C0843059005980199086001F0BAFD3B
:1009200001281AD1FFE7FFF7ADFE0890FFE701F0BD
:10093000C1FD012810D0FFE7FFF7A4FEDDF820E09D
:10094000A0EB0E0041F2893E704504D3FFE703207F
:100950008DF81F0000E0EAE7FFE7FFE79DF81F00C2
:100960008DF81E0004E09DF81F008DF81E00FFE7C3
:10097000FFE709980068C007002805D0FFE709983D
:10098000806901F095FFFFE709980068800700285B
:1009900005D5FFE70998C06901F00AFFFFE709984C
:1009A0000068C006002805D5FFE70998806A01F0B5
:1009B000EBFEFFE7099800688006002805D5FFE7F1
:1009C0000998C06A01F0E0FEFFE709980068400757
:1009D000002805D5FFE70998006A01F0BFFEFFE790
:1009E000099800680007002805D5FFE70998406AC4
:1009F00001F0B4FEFFE709980068C00500282AD579
:100A0000FFE70998406B01F063FF0998406BB0F174
:100A1000006F08D1FFE70C20C5F60000016841F027
:100A200080710160FFE70998406BB0F1806F11D1D0
:100A3000FFE70998043002F08BF88DF81F009DF84D
:100A40001F00002805D0FFE79DF81F008DF81E004D
:100A5000FFE7FFE7FFE7099800688005002833D526
:100A6000FFE7FFE70998806BB0F1804F0BD0FFE7FD
:100A70000998806BB0F1004F05D0FFE70998806BB3
:100A8000002805D1FFE70998806B01F0B1FE0BE06B
:100A90000998806B20F080500490002001F0A8FE9F
:100AA000049801F04BFEFFE7FFE70998806BB0F177
:100AB000C05F08D1FFE70C20C5F60000016841F0D7
:100AC00080710160FFE7FFE7099800684005002892
:100AD0002AD5FFE70998C06B01F0DEFD0998C06BCD
:100AE000B0F1005F08D1FFE70C20C5F600000168F7
:100AF00041F480310160FFE70998C06BB0F1805F7D
:100B000011D1FFE70998043002F086F88DF81F0034
:100B10009DF81F00002805D0FFE79DF81F008DF805
:100B20001E00FFE7FFE7FFE709980068C004002800
:100B300005D5FFE70998406C01F04AFEFFE70998E8
:100B400000688004002809D5FFE70998C06C01F00F
:100B50008FFE0998806C01F07BFEFFE79DF81E0078
:100B60000AB080BD80B586B00A4603460490039162
:100B7000049800280192009304D1FFE701208DF82A
:100B8000170081E1039844F20001C5F600010968ED
:100B900001F00701884228D9FFE744F20000C5F6BA
:100BA0000000016821F00701039A11430160FFF77B
:100BB00069FD0290FFE744F20000C5F600000068FE
:100BC00000F00700039988420ED0FFE7FFF75AFDB7
:100BD000DDF808E0A0EB0E00032804D3FFE70320B4
:100BE0008DF8170050E1E6E7FFE7049800688007FA
:100BF00000281CD5FFE70498806801F06FFDFFF71F
:100C000041FD0290FFE701F005FC00280ED1FFE74F
:100C1000FFF738FDDDF808E0A0EB0E00032804D351
:100C2000FFE703208DF817002EE1ECE7FFE70498BB
:100C30000068800600281CD5FFE70498406901F091
:100C400045FBFFF71FFD0290FFE701F0DBFB0028EB
:100C50000ED1FFE7FFF716FDDDF808E0A0EB0E0070
:100C6000032804D3FFE703208DF817000CE1ECE71D
:100C7000FFE704980068400600281CD5FFE70498A9
:100C8000806901F019FDFFF7FDFC0290FFE701F01C
:100C9000D9FB00280ED1FFE7FFF7F4FCDDF808E0F0
:100CA000A0EB0E00032804D3FFE703208DF8170004
:100CB000EAE0ECE7FFE704980068400700281CD54D
:100CC000FFE70498C06801F019FDFFF7DBFC029014
:100CD000FFE701F0A7FB00280ED1FFE7FFF7D2FCEA
:100CE000DDF808E0A0EB0E00032804D3FFE70320A3
:100CF0008DF81700C8E0ECE7FFE7049800680007EC
:100D000000281DD5FFE704980069C00001F006FD2A
:100D1000FFF7B8FC0290FFE701F08CFB00280ED132
:100D2000FFE7FFF7AFFCDDF808E0A0EB0E000328BB
:100D300004D3FFE703208DF81700A5E0ECE7FFE7F9
:100D400004980068C00700285CD0FFE7049840685A
:100D500002280AD1FFE701F011FB002804D1FFE7C8
:100D600001208DF817008FE029E0049840680328DF
:100D70000AD1FFE701F082FC002804D1FFE701203F
:100D80008DF8170080E019E00498406800280AD127
:100D9000FFE701F009FC002804D1FFE701208DF8EE
:100DA000170071E009E001F017FB002804D1FFE70C
:100DB00001208DF8170067E0FFE7FFE7FFE70498E1
:100DC000406801F065FDFFF75DFC0290FFE701F070
:100DD000B7FADDF810E0DEF804E0B0EB8E0F10D0CB
:100DE000FFE7FFF74FFCDDF808E0A0EB0E0041F253
:100DF000893E704504D3FFE703208DF8170043E0D8
:100E0000E5E7FFE7039844F20001C5F60001096831
:100E100001F00701884228D2FFE744F20000C5F63E
:100E20000000016821F00701039A11430160FFF7F8
:100E300029FC0290FFE744F20000C5F600000068BC
:100E400000F00700039988420ED0FFE7FFF71AFC75
:100E5000DDF808E0A0EB0E00032804D3FFE7032031
:100E60008DF8170010E0E6E7FFE700F011F840F218
:100E7000080EC2F2000ECEF80000FFF709FCFFF7E3
:100E80003DFC8DF81700FFE79DF8170006B080BD08
:100E900080B582B000F012F8019001F041FA00F044
:100EA000F000800843F2846EC0F6000E5EF8000089
:100EB000DDF804E0BEFBF0F002B080BD80B58AB082
:100EC00001F03EFA0690069800280DD1FFE701F0E8
:100ED00059FB00F0F000800843F2C46EC0F6000E2B
:100EE0005EF80000089077E00698042806D1FFE736
:100EF00042F20040C0F2F40008906CE00698082826
:100F000012D1FFE701F034FA012806D1FFE742F2DF
:100F10000040C0F2F400089005E044F60000C0F282
:100F2000E8100890FFE755E001F090FB0990099860
:100F30000128059020D0FFE70598022804D0FFE79C
:100F40000598032806D018E042F20040C0F2F400F1
:100F500007901FE001F00CFA012806D1FFE742F2EA
:100F60000040C0F2F400079005E044F60000C0F233
:100F7000E8100790FFE70DE0FFE701F003FB00F04A
:100F8000F000800843F2C46EC0F6000E5EF8000068
:100F90000790FFE70798049001F060FBDDF810E090
:100FA0000EFB00F0039001F049FB4FF0010E0EEB39
:100FB00010100399B1FBF0F0CDF808E0019001F0BA
:100FC00055FB029901EB5070DDF804E0BEFBF0F038
:100FD0000890FFE7FFE7FFE708980AB080BD000030
:100FE00010B58EB001460C900C980028029105D1E6
:100FF000FFE701208DF8370000F02ABC0C9800684C
:101000008006002840F1AA80FFE701F099F90A90D4
:1010100001F01CFB09900A98002808D0FFE70A9805
:101020000C2858D1FFE70998012854D1FFE70C9804
:10103000C069002805D1FFE701208DF8370000F0D6
:1010400007BC0C98406A019001F09CFADDF804E0BE
:10105000864514D9FFE70C98406A01F0E1FE0028AC
:1010600004D0FFE701208DF83700F1E30C98406AC7
:1010700001F0B0FA0C98006A01F09CFA13E00C98A9
:10108000406A01F0A7FA0C98006A01F093FA0C98F4
:10109000406A01F0C5FE002804D0FFE701208DF86A
:1010A0003700D5E3FFE7FFF7F3FE40F2080EC2F288
:1010B000000ECEF8000040F21000C2F200000068FE
:1010C000FFF71CFB002804D0FFE701208DF8370054
:1010D000BEE3FFE741E00C98C069002822D0FFE79B
:1010E00001F048FAFFF7CEFA0B90FFE701F05CFA47
:1010F00000280ED1FFE7FFF7C5FADDF82CE0A0EBE2
:101100000E00032804D3FFE703208DF837009FE388
:10111000ECE70C98406A01F05DFA0C98006A01F067
:1011200049FA19E001F01EFAFFF7ACFA0B90FFE75D
:1011300001F03AFA00280ED0FFE7FFF7A3FADDF836
:101140002CE0A0EB0E00032804D3FFE703208DF86A
:1011500037007DE3ECE7FFE7FFE7FFE70C98006867
:10116000C007002861D0FFE701F0EAF8089001F01D
:101170006DFA07900898082808D0FFE708980C280F
:101180000ED1FFE7079803280AD1FFE70C984068C3
:10119000002804D1FFE701208DF8370058E343E031
:1011A000FFE70C984068B0F5803F03D1FFE701F0FE
:1011B000D7F802E001F0CCF8FFE7FFE70C984068B1
:1011C000002818D0FFE7FFF75DFA0B90FFE701F06A
:1011D000D5F800280ED1FFE7FFF754FADDF82CE030
:1011E000A0EB0E00652804D3FFE703208DF837003D
:1011F0002EE3ECE717E0FFF745FA0B90FFE701F06D
:10120000BDF800280ED0FFE7FFF73CFADDF82CE030
:10121000A0EB0E00652804D3FFE703208DF837000C
:1012200016E3ECE7FFE7FFE7FFE70C9800688007AD
:10123000002860D5FFE701F083F8069001F006FA78
:1012400005900698042808D0FFE706980C2813D1CB
:10125000FFE7059802280FD1FFE70C98C068002827
:1012600004D1FFE701208DF83700F1E20C98006906
:1012700001F0B8F8FFE73DE00C98C06800281ED0E8
:10128000FFE701F0A1F8FFF7FDF90B90FFE701F090
:10129000A3F800280ED1FFE7FFF7F4F9DDF82CE002
:1012A000A0EB0E00032804D3FFE703208DF83700DE
:1012B000CEE2ECE70C98006901F094F819E001F037
:1012C0007BF8FFF7DFF90B90FFE701F085F80028C6
:1012D0000ED0FFE7FFF7D6F9DDF82CE0A0EB0E000B
:1012E000032804D3FFE703208DF83700B0E2ECE7D2
:1012F000FFE7FFE7FFE70C98006800F00800082808
:1013000007D0FFE70C980068C006002840F1C880AD
:10131000FFE70C984069002800F08E80FFE70C98EA
:101320000068C006002856D5FFE701F0EBF800285A
:101330001AD1FFE701F0DEF8FFF7A4F90B90FFE701
:1013400001F0E0F800280ED1FFE7FFF79BF9DDF888
:101350002CE0A0EB0E00032804D3FFE703208DF858
:10136000370075E2ECE7FFE701F0DCF8FFF78AF9F8
:101370000B90FFE701F0DEF800280ED1FFE7FFF742
:1013800081F9DDF82CE0A0EB0E00042804D3FFE780
:1013900003208DF837005BE2ECE70C98806901F0E0
:1013A000D1F801F09FF8FFF76DF90B90FFE701F01E
:1013B000A9F800280ED0FFE7FFF764F9DDF82CE06C
:1013C000A0EB0E00032804D3FFE703208DF83700BD
:1013D0003EE2ECE72FE001F08DF8FFF753F90B90B8
:1013E000FFE701F08FF800280ED1FFE7FFF74AF979
:1013F000DDF82CE0A0EB0E00032804D3FFE7032068
:101400008DF8370024E2ECE701F084F8FFE701F003
:1014100091F800280ED0FFE7FFF734F9DDF82CE053
:10142000A0EB0E00042804D3FFE703208DF837005B
:101430000EE2ECE7FFE732E001F06CF8FFF722F98B
:101440000B90FFE701F076F800280ED0FFE7FFF7DA
:1014500019F9DDF82CE0A0EB0E00042804D3FFE717
:1014600003208DF83700F3E1ECE701F03BF8FFF7DC
:1014700009F90B90FFE701F045F800280ED0FFE7CF
:10148000FFF700F9DDF82CE0A0EB0E00032804D3F1
:10149000FFE703208DF83700DAE1ECE7FFE7FFE72D
:1014A0000C980068400700287BD5FFE740F2004019
:1014B000C5F600000068C00500281ED4FFE7FFF74E
:1014C000A7F9FFF7DFF80B90FFE740F20040C5F601
:1014D00000000068C00500280ED4FFE7FFF7D2F82F
:1014E000DDF82CE0A0EB0E00032804D3FFE7032077
:1014F0008DF83700ACE1E8E7FFE7FFE70C9880687C
:10150000012803D1FFE700F0B5FF0FE00C988068D9
:10151000052805D1FFE700F0B5FF00F0ABFF04E0C0
:1015200000F098FF00F09EFFFFE7FFE7FFE70C9851
:10153000806800281AD0FFE7FFF7A4F80B90FFE7B8
:1015400000F0B0FF002810D1FFE7FFF79BF8DDF8AF
:101550002CE0A0EB0E0041F2893E704504D3FFE77A
:1015600003208DF8370073E1EAE719E0FFF78AF806
:101570000B90FFE700F096FF002810D0FFE7FFF781
:1015800081F8DDF82CE0A0EB0E0041F2893E7045B9
:1015900004D3FFE703208DF8370059E1EAE7FFE7BE
:1015A000FFE70C980068400600283AD5FFE70C9842
:1015B000806A00281AD0FFE700F0EEFEFFF762F81D
:1015C0000B90FFE700F0F0FE00280ED1FFE7FFF7D9
:1015D00059F8DDF82CE0A0EB0E00032804D3FFE758
:1015E00003208DF8370033E1ECE719E000F0CCFE82
:1015F000FFF748F80B90FFE700F0D6FE00280ED06A
:10160000FFE7FFF73FF8DDF82CE0A0EB0E00032822
:1016100004D3FFE703208DF8370019E1ECE7FFE77B
:10162000FFE70C98C06A002800F00E81FFE700F089
:1016300087FE04900C20C5F60000006803900C980B
:10164000C06A022840F0D080FFE7039800F0030052
:101650000C99096B884229D1FFE7039800F07000CC
:101660000C99496B884221D1FFE7039800F4FE40B2
:101670000C99896BB1EB102F18D1FFE7039800F498
:1016800078100C99C96B884210D1FFE7039800F0DD
:1016900060600C99096C884208D1FFE7039800F05C
:1016A00060400C99496C88426FD0FFE704980C2881
:1016B00066D0FFE74FF0B04000684001002804D535
:1016C000FFE701208DF83700C2E000F0A7FFFEF72A
:1016D000D9FF0B90FFE74FF0B04000688001002871
:1016E0000ED5FFE7FEF7CEFFDDF82CE0A0EB0E00F5
:1016F000032804D3FFE703208DF83700A8E0EAE7CA
:101700000C20C5F60000016848F28C02C1F2C1123B
:1017100011400C9A136BD2F834C0D2F838E0D46B75
:1017200043EA0C0343EA0E232343D2F840C043EAC2
:101730000C03526C1A4311430160009000F076FFD5
:101740000098016841F080510160FEF79BFF0B900B
:10175000FFE74FF0B0400068800100280ED4FFE79B
:10176000FEF790FFDDF82CE0A0EB0E00032804D379
:10177000FFE703208DF837006AE0EAE7FFE703E0C0
:1017800001208DF8370063E02DE04FF0B040006895
:101790008001002826D4FFE700F048FF40F20C0E3D
:1017A000C5F6000EDEF8000040F08050CEF80000D4
:1017B000FEF768FF0B90FFE74FF0B0400068800134
:1017C00000280ED4FFE7FEF75DFFDDF82CE0A0EB6C
:1017D0000E00032804D3FFE703208DF8370037E01D
:1017E000EAE7FFE7FFE72EE004980C2826D0FFE7A2
:1017F00000F014FFFEF746FF0B90FFE74FF0B040FC
:101800000068800100280ED5FFE7FEF73BFFDDF8FA
:101810002CE0A0EB0E00032804D3FFE703208DF893
:10182000370015E0EAE70C20C5F6000001684FF626
:10183000FC72CEF6FE621140016003E001208DF8DB
:10184000370005E0FFE7FFE700208DF83700FFE7EE
:101850009DF837000EB010BD82B00146019040F2F5
:101860001800C2F2000001220270009102B070471D
:1018700080B582B00146019040F60C00C5F600002C
:101880004FF40022026001980068C06800F4806094
:101890000022B2EB902F00910ED0FFE70198006874
:1018A000C06860F4906020F4806001990968C860A5
:1018B0000198FFF7D1FFFFE70198012180F821107F
:1018C00002B080BD80B584B0014602900298002825
:1018D000009104D1FFE701208DF80F0081E002980C
:1018E00090F82100002808D1FFE70298002180F835
:1018F0002010029800F07AF8FFE70298022180F8A1
:10190000211002980068C06800F010000021B1EBBF
:10191000101F53D1FFE7FFE702980068CA21416218
:101920000298006853214162FFE7029801F0BEFA75
:101930008DF807009DF80700002824D1FFE70298E2
:10194000006881684FF6BF72CFF68F7211408160D8
:10195000029801684268036980691A4310438A68E3
:101960001043886002980168C068086102980168A5
:1019700080680A6942EA00400861029801F0DEFAD4
:101980008DF80700FFE79DF8070000280FD1FFE75B
:1019900002980068C16C21F00301C16402980168DB
:1019A0004269C0691043CA6C1043C864FFE7FFE78F
:1019B00002980068FF214162FFE703E000208DF8F4
:1019C0000700FFE79DF80700002805D1FFE7029810
:1019D000012180F82110FFE79DF807008DF80F0026
:1019E000FFE79DF80F0004B080BD000080B596B001
:1019F0000146159001A8502200911146FEF7D3FB35
:101A00001598006842F60001C4F20001884216D120
:101A1000FFE74FF4006001904FF48070119001A82F
:101A2000FEF700FF002803D0FFE7FEF7DDFBFFE72E
:101A300000F05CFC4FF4806000F020FCFFE716B083
:101A400080BD000080B584B0014602900020019066
:101A5000029800684FF65F72C0F20102C260009106
:101A6000FEF710FE0190FFE702980068C06880064C
:101A700000280FD4FFE7FEF705FEDDF804E0A0EB39
:101A80000E00B0F57A7F04D9FFE703208DF80F0030
:101A900004E0E9E700208DF80F00FFE79DF80F0054
:101AA00004B080BD82B001460190009102B0704741
:101AB00080B58CB001460B900B98006840680A9086
:101AC0000B980068806809909DF8240000F04000A1
:101AD0000022B2EB901F049112D1FFE70998C007D2
:101AE00000280DD0FFE79DF8280000F040000021FD
:101AF000B1EB901F04D0FFE70B98C16C8847F9E069
:101B00009DF8240000F002000021B1EB500F0BD033
:101B1000FFE79DF828000021B1EBD01F04D0FFE7BC
:101B20000B98016D8847E5E09DF8240000F0200047
:101B30000021B1EB501F10D1FFE79DF8240000F009
:101B400040000021B1EB901F07D1FFE79DF8250071
:101B5000C007002800F0CE80FFE79DF8280000F0C5
:101B600020000021B1EB501F00F0C480FFE79DF87A
:101B7000240000F040000021B1EB901F2AD0FFE7C5
:101B80000B9890F85D00032814D0FFE70B98016EC6
:101B900041F004010166FFE7002008900B980068FF
:101BA000C06808900B9800688068089008980390B7
:101BB000FFE70EE0FFE7002007900B980068C06881
:101BC00007900B9800688068079007980290FFE7DD
:101BD00090E0FFE79DF8240000F020000021B1EB29
:101BE000501F16D0FFE70B98016E41F0010101660E
:101BF000FFE7002006900B980068806806900B981D
:101C00000068016821F04001016006980190FFE73B
:101C1000FFE79DF82500C007002810D0FFE70B98CC
:101C2000016E41F008010166FFE7002005900B9866
:101C300000688068059005980090FFE7FFE70B9823
:101C4000006E002855D0FFE70B980068416821F02E
:101C5000E00141600B98012180F85D100A9800F0C6
:101C60000200022805D0FFE70A98C00700283BD0F1
:101C7000FFE70B980068416821F0030141600B9871
:101C8000806D002815D0FFE70B98806D42F6AD718E
:101C9000C0F6000181630B98806DFEF7ADFA002855
:101CA00006D0FFE70B98016E41F040010166FFE7A7
:101CB000FFE70B98406D002815D0FFE70B98406DAB
:101CC00042F6AD71C0F6000181630B98406DFEF7DE
:101CD00093FA002806D0FFE70B98016E41F040010F
:101CE0000166FFE7FFE703E00B98FFF7DBFEFFE786
:101CF000FFE7FFE70CB080BD80B584B001460290DD
:101D000002980028009104D1FFE701208DF80F0010
:101D100092E00298406A00280CD1FFE702984068E0
:101D2000B0F5827F01D1FFE703E002980021C16195
:101D3000FFE705E002980021016102984161FFE799
:101D4000029800218162029890F85D00002808D175
:101D5000FFE70298002180F85C10029800F070F80C
:101D6000FFE70298022180F85D1002980068016880
:101D700021F0400101600298C068B0F5E06F03D91E
:101D8000FFE70020019003E04FF480500190FFE74F
:101D90000298C068B0F5706F0AD0FFE70298C0687B
:101DA000B0F5E06F04D0FFE7029800218162FFE701
:101DB0000298016842688368D0F810C002F4827209
:101DC00003F404431A440CF002031A44436903F079
:101DD00001031A44836903F400731A44C36903F0CE
:101DE00038031A44036A03F080031A44806A00F43B
:101DF0000050104308600298418B01F00401026812
:101E0000C368D0F824C0406B0CF0100C614400F0A3
:101E10000800084403F470610844019901F48051FA
:101E2000084450600298002101660298012280F85F
:101E30005D208DF80F10FFE79DF80F0004B080BD06
:101E400080B58EB001460D9000200C900B900A904A
:101E5000099008900D98006843F20002C4F2010254
:101E60009042079139D1FFE74FF4805000F01AFA01
:101E70000120069000F0EEF9A020089002200990C1
:101E80004FF0000ECDF828E0CDF82CE005210C91A4
:101E90004FF0904208AB0590104604911946CDF8DA
:101EA0000CE002920193FEF72BFA4020089005986F
:101EB000099006990A91039A0B92049B0C9302983D
:101EC0000199FEF71DFA222000900399039AFEF76C
:101ED00069FC0098FEF75AFCFFE70EB080BD0000D9
:101EE000B0B58EB09C4696460C4605460C900B91BC
:101EF000ADF82A200993CDF814C0CDF810E0039472
:101F00000295FEF7BFFB0890BDF82A00ADF81E0051
:101F10000C9890F85D00012804D0FFE702208DF8AE
:101F2000370072E10B98002805D0FFE7BDF82A00C2
:101F3000002804D1FFE701208DF8370065E1FFE7B5
:101F40000C9890F85C00012804D1FFE702208DF87E
:101F500037005AE10C98012180F85C10FFE7FFE799
:101F60000C98032180F85D100C98002101660B98F5
:101F70000C9A9063BDF82A000C9A9087BDF82A004D
:101F80000C9AD0870C9801640C98A0F844100C9817
:101F9000A0F846100C9801650C98C1640C988068F4
:101FA000B0F5004F0DD1FFE70C980068016821F0F3
:101FB000400101600C980068016841F480410160B3
:101FC000FFE70C980068006800F04000402807D048
:101FD000FFE70C980068016841F040010160FFE7ED
:101FE0000C98C068B0F5E06F58D9FFE70C984068CE
:101FF000002805D0FFE7BDF81E0001280ED1FFE73D
:102000000C980168806B0088C8600C98816B023165
:1020100081630C98C18F0139C187FFE7FFE70C98F6
:10202000C08F002839D0FFE70C98006880688007CF
:1020300000280ED5FFE70C980168806B0088C86007
:102040000C98816B023181630C98C18F0139C18773
:1020500022E0FEF717FBDDF820E0A0EB0E00DDF834
:1020600024E0704505D3FFE709980130002804D12A
:10207000FFE7099800280ED1FFE70C98012180F8AE
:102080005D10FFE70C98002180F85C10FFE703204B
:102090008DF83700B9E0FFE7C1E77FE00C984068B2
:1020A000002805D0FFE7BDF81E00012822D1FFE778
:1020B0000C98C08F02280ED3FFE70C980168806B44
:1020C0000088C8600C98816B023181630C98C18FC5
:1020D0000239C1870DE00C980168806B00780873A5
:1020E0000C98816B013181630C98C18F0139C187D4
:1020F000FFE7FFE7FFE70C98C08F00284DD0FFE710
:102100000C98006880688007002822D5FFE70C98AB
:10211000C08F02280ED3FFE70C980168806B0088FF
:10212000C8600C98816B023181630C98C18F0239B1
:10213000C1870DE00C980168806B007808730C98DB
:10214000816B013181630C98C18F0139C187FFE731
:1021500022E0FEF797FADDF820E0A0EB0E00DDF8B4
:1021600024E0704505D3FFE709980130002804D129
:10217000FFE7099800280ED1FFE70C98012180F8AD
:102180005D10FFE70C98002180F85C10FFE703204A
:102190008DF8370039E0FFE7ADE7FFE70C980999C4
:1021A000089A00F017FF002804D0FFE70C982021C0
:1021B0000166FFE70C98806800280FD1FFE7FFE772
:1021C000002006900C980068C06806900C98006883
:1021D0008068069006980190FFE7FFE70C980121C0
:1021E00080F85D10FFE70C98002180F85C10FFE795
:1021F0000C98006E002804D0FFE701208DF837000E
:1022000003E000208DF83700FFE79DF837000EB09F
:10221000B0BD000080B582B00146019001980091E8
:1022200001F092F802B080BDFFE7FEE784B00146FE
:10223000039003984C22C5F60002136818431060FF
:102240001068039A1040029002980191009004B027
:102250007047000084B00146039003984C22C5F6F5
:1022600000021368184310601068039A104002902F
:1022700002980191009004B07047000084B00146BC
:10228000039003985822C5F60002136818431060A3
:102290001068039A1040029002980191009004B0D7
:1022A0007047000084B00146039003986022C5F691
:1022B00000021368184310601068039A10400290DF
:1022C00002980191009004B07047000082B001466E
:1022D000019040F20810C5F60000026822F0F002FA
:1022E000019B1A430260009102B070479020C5F62E
:1022F0000000016841F40041016070479020C5F67C
:102300000000016841F480310160704740F208101C
:10231000C5F60000006800F00F00000170470000E3
:102320000820C5F60000006800F0F00070470000CB
:102330009020C5F60000006800F44070704700006F
:102340000820C5F60000006800F00C00704700008F
:102350004FF0B040016821F4803101607047000007
:102360004FF0B040016841F48031016070470000D7
:102370004FF0B0400068C0F3005070474FF0B040DD
:102380000068C0F3404070479820C5F6000001681F
:1023900021F00101016070479820C5F60000016836
:1023A00041F00101016070479820C5F60000006807
:1023B000C0F34000704700004FF0B040016821F4C6
:1023C00080710160704700004FF0B040016841F437
:1023D00080710160704700004FF0B0400068C0F3AA
:1023E0008020704782B0014601900420C5F60000AD
:1023F000026822F0FE42019B42EA03620260009101
:1024000002B0704740F20810C5F600000068C0F343
:10241000404070470820C5F600000068C0F3004047
:10242000704700000820C5F600000068C0F3404077
:10243000704700000820C5F600000068C0F3804027
:102440007047000040F20810C5F600000068C0F3B5
:10245000004070479020C5F60000016821F001019E
:10246000016070479020C5F60000016821F004016A
:10247000016070479020C5F60000016841F001013D
:10248000016070479020C5F60000016841F004012A
:10249000016070479020C5F60000006800F0010060
:1024A000704700009020C5F600000068C0F34000AF
:1024B000704700009020C5F600000068C0F340009F
:1024C0007047000082B0014601909020C5F60000E0
:1024D000026822F01802019B1A430260009102B0C8
:1024E000704700009420C5F60000016821F001014A
:1024F000016070479420C5F60000016841F00101B9
:10250000016070479420C5F600000068C0F34000E9
:10251000704700009420C5F60000016821F0040116
:10252000016070479420C5F60000016841F0040185
:10253000016070479420C5F600000068C0F3C00039
:102540007047000082B0014601909420C5F600005B
:10255000026822F47062019B42EA03220260009149
:1025600002B070474FF0B040016821F001010160F6
:10257000704700004FF0B040016841F00101016078
:102580007047000081B04FF0B040006800F0F000EC
:1025900000900098B12803D3FFE7B0200090FFE738
:1025A000009801B0704700004FF0B0400068C0F3E1
:1025B0004000704782B0014601900420C5F600003B
:1025C000026822F47F42019B42EA032202600091EA
:1025D00002B0704782B0014601904FF0B0400268EF
:1025E00022F0F002019B1A430260009102B0704792
:1025F0004FF0B040016821F0806101607047000039
:102600004FF0B040016841F0806101607047000008
:102610004FF0B0400068C0F3C06070474FF0B0406A
:10262000016821F080710160704700004FF0B040F8
:10263000016841F080710160704700000C20C5F610
:102640000000006800F07000704700000C20C5F624
:102650000000006800F00300704700000C20C5F681
:1026600000000068C0F30620704700000C20C5F68B
:102670000000006800F06040704700004FF0B0407C
:102680000068C0F3406070479020C5F60000016804
:1026900021F480310160704782B0014601908820AA
:1026A000C5F60000026822F04052019B1A43026006
:1026B000009102B07047000082B00146019040F2E4
:1026C0000810C5F60000026822F00F02019B42EAE2
:1026D00013120260009102B07047000082B0014600
:1026E00001900820C5F60000026822F0F002019B6C
:1026F0001A430260009102B07047000082B00146A8
:1027000001900820C5F60000026822F4E062019BF7
:102710001A430260009102B07047000082B0014687
:1027200001900820C5F60000026822F46052019B67
:102730001A430260009102B07047000082B0014667
:1027400001908820C5F60000026822F04062019BDB
:102750001A430260009102B07047000082B0014647
:1027600001908820C5F600000268019B6FF47F2C61
:102770006CEA131C02EA0C0203F47F4342EA0312E0
:102780000260009102B0704782B00146019088203B
:10279000C5F600000268019B4FF6FF7C6CEA030C53
:1027A00002EA0C0242EA03420260009102B0704762
:1027B00082B0014601908820C5F60000026822F42C
:1027C0004062019B1A430260009102B07047000012
:1027D00082B0014601909420C5F60000026822F400
:1027E0004042019B1A430260009102B07047000012
:1027F00082B0014601908820C5F60000026822F0F0
:102800004042019B1A430260009102B070470000F1
:1028100082B0014601909020C5F60000026822F4C3
:102820004072019B1A430260009102B070470000A1
:1028300082B0014601908820C5F60000026822F4AB
:102840004002019B1A430260009102B070470000F1
:1028500082B0014601902420C5F60000026822F0F3
:102860000302019B1A430260009102B0704700000E
:1028700082B0014601902420C5F60000026822F0D3
:102880003002019B1A430260009102B070470000C1
:1028900082B0014601900820C5F60000026822F0CF
:1028A0000302019B1A430260009102B070470000CE
:1028B00082B0014601908820C5F60000026822F02F
:1028C0000302019B1A430260009102B070470000AE
:1028D00080B582B00146019001980091FFF72EFF6C
:1028E00002B080BD80B58AB00020099008900790A2
:1028F00006900590042104900846FFF797FC0120FC
:102900000390FFF793FC4FF090404FF4007102905A
:102910000191049AFDF796FE01980590039906919E
:10292000049A07924FF0020ECDF820E005A9029814
:10293000FDF7E6FC0AB080BD80B540F21C00C2F293
:10294000000042F60001C4F2000101600021416074
:102950007F228260FF22C26001618161C1614161A9
:10296000FEF7B0FF002803D0FFE7FDF73DFCFFE7CF
:1029700080BD000080B540F24000C2F2000043F28A
:102980000001C4F2010101604FF482714160002135
:1029900081604FF4E062C260016141614FF40072F6
:1029A00082611022C2610162416281620722C262B9
:1029B00001634163FFF7A0F9002803D0FFE7FDF7AB
:1029C00013FCFFE780BD0000FFE7FEE7FFE7FEE73F
:1029D00080B58BB013468C4686460A9009910892C2
:1029E0000A9800F0070007900798C0F10700052833
:1029F0000493CDF80CC0CDF808E003D3FFE7042022
:102A0000019004E00798C0F107000190FFE70198EA
:102A1000069007980430062803D8FFE700200090AE
:102A200003E0079803380090FFE7009805900998A5
:102A30000699012202FA01F10139084005998840FE
:102A4000089B02FA01F10139194008430BB080BD1F
:102A50007047000080B596B002A850210190FDF7A4
:102A6000A2FB4FF40050029000201490102015900B
:102A70000198FDF7D7FE002803D0FFE7FDF7B4FB70
:102A8000FFE716B080BD000080B584B0014603901A
:102A900000208DF807000091FFF7AAFDFDF7F2FD79
:102AA0000290FFE7FFF7B4FD00280ED0FFE7FDF727
:102AB000E9FDDDF808E0A0EB0E00032804D3FFE7F2
:102AC00003208DF8070000E0ECE79DF807000028E0
:102AD0003AD1FFE71020C5F60000016821F4FE415D
:102AE000039A126841EA02210160016821F4781119
:102AF000039A526811430160FFF782FDFDF7C2FDA2
:102B00000290FFE7FFF784FD01280ED0FFE7FDF7F5
:102B1000B9FDDDF808E0A0EB0E00032804D3FFE7C1
:102B200003208DF8070000E0ECE79DF8070000287F
:102B300009D1FFE7039800691021C5F600010A6872
:102B400010430860FFE7FFE79DF8070004B080BD71
:102B500080B584B00146039000208DF807000091F5
:102B6000FFF746FDFDF78EFD0290FFE7FFF750FDF2
:102B700000280ED0FFE7FDF785FDDDF808E0A0EBAB
:102B80000E00032804D3FFE703208DF8070000E0C0
:102B9000ECE79DF8070000283AD1FFE71020C5F6C2
:102BA0000000016821F4FE41039A126841EA022103
:102BB0000160016821F06061039A9268114301602D
:102BC000FFF71EFDFDF75EFD0290FFE7FFF720FD1A
:102BD00001280ED0FFE7FDF755FDDDF808E0A0EB7A
:102BE0000E00032804D3FFE703208DF8070000E060
:102BF000ECE79DF80700002809D1FFE7039800697A
:102C00001021C5F600010A6810430860FFE7FFE7DE
:102C10009DF8070004B080BD80B584B001460390E4
:102C200000208DF807000091FFF7E2FCFDF72AFD78
:102C30000290FFE7FFF7ECFC00280ED0FFE7FDF75E
:102C400021FDDDF808E0A0EB0E00032804D3FFE728
:102C500003208DF8070000E0ECE79DF8070000284E
:102C60003AD1FFE71020C5F60000016821F4FE41CB
:102C7000039A126841EA02210160016821F0604173
:102C8000039AD26811430160FFF7BAFCFDF7FAFC22
:102C90000290FFE7FFF7BCFC01280ED0FFE7FDF72D
:102CA000F1FCDDF808E0A0EB0E00032804D3FFE7F9
:102CB00003208DF8070000E0ECE79DF807000028EE
:102CC00009D1FFE7039800691021C5F600010A68E1
:102CD00010430860FFE7FFE79DF8070004B080BDE0
:102CE00080B594B00A4603461290119143F20470E5
:102CF000C0F600000168D0F804C0D0F808E0C06851
:102D00001090CDF83CE0CDF838C00D9143F26460EE
:102D1000C0F600000168D0F804C080680C90CDF8BF
:102D20002CC00A9143F21470C0F600000168D0F87C
:102D300004C0D0F808E0C0680990CDF820E0CDF8D4
:102D40001CC00691002005901198B0F5007F0192FB
:102D500000931BD1FFE700200390FFE703980328AF
:102D600013D8FFE7129803990DAA52F82110884250
:102D700006D8FFE7039806A951F82000059004E063
:102D8000FFE7039801300390E8E71AE00020029083
:102D9000FFE70298022813D8FFE7129802990AAABF
:102DA00052F82110884206D8FFE7029806A951F888
:102DB0002000059004E0FFE7029801300290E8E768
:102DC000FFE744F20000C5F60000016821F00701AA
:102DD000059A11430160FDF755FC0490FFE744F2AA
:102DE0000000C5F60000006800F007000599884261
:102DF0000ED0FFE7FDF746FCDDF810E0A0EB0E007B
:102E0000032804D3FFE703208DF84F0004E0E6E732
:102E100000208DF84F00FFE79DF84F0014B080BDF3
:102E200080B588B0014607900798B128049107D370
:102E3000FFE743F2C460C0F60000C06A05900AE0F4
:102E4000079800F0F000800843F2C461C0F600016A
:102E500008580590FFE705980390FFF757FA4FF0E1
:102E60003C0E0EEA900043F2846EC0F6000E5EF84F
:102E70000000DDF80CE0BEFBF0F0069006984DF681
:102E8000836EC4F21B3EA0FB0E0E4FEA9E4E0290D4
:102E9000CDF804E0FDF7B4FCDDF804E000907046E6
:102EA0000099FFF71DFF08B080BD000080B586B017
:102EB00001460590002004908DF80F0005980068E9
:102EC000C06840060028029133D4FFE705980068E7
:102ED000C16841F08001C160FDF7D4FB0490FFE7B9
:102EE00005980068C068002140060028019107D4B9
:102EF000FFE79DF80F00013818BF01200190FFE7A0
:102F00000198C007002813D0FFE7FDF7BBFBDDF8F1
:102F100010E0A0EB0E00B0F57A7F08D9FFE7059826
:102F2000042180F8211001208DF80F00FFE7D7E77A
:102F3000FFE79DF80F0006B080BD000080B584B0AB
:102F40000146039000208DF80B0003980068C268CA
:102F500022F08002C2600398006880688006002822
:102F600001910FD4FFE70398FEF76CFD002808D00D
:102F7000FFE70398042180F8211001208DF80B0051
:102F8000FFE7FFE79DF80B0004B080BD80B540F27D
:102F90001C00C2F20000FEF76BFC80BD80B540F261
:102FA0004000C2F20000FEF783FD80BD80B584B012
:102FB000014603900398806A029002980022A0F8CC
:102FC00046200298C28702980191FEF76BFD04B07B
:102FD00080BD000010B58AB013468C468646089026
:102FE0000791069208980799069A6C4622604FF45A
:102FF000C0520024059111462246059C04932346A5
:10300000CDF80CC0CDF808E000F040F8002809D059
:10301000FFE70898016E41F02001016603208DF85A
:1030200027002EE00898079B06996A4611608021C8
:10303000002200F0E3F8002809D0FFE70898016EAD
:1030400041F02001016603208DF8270019E008985F
:10305000079B06996A4611604FF4C061002200F098
:1030600015F8002809D0FFE70898016E41F020010B
:10307000016603208DF8270003E000208DF827006B
:10308000FFE79DF827000AB010BD000070B592B0B0
:10309000DDF858C09E4614460D46064610900F9126
:1030A0000E920D9300208DF823000D98CDF81CC0D2
:1030B000CDF818E00594049503960290FDF7E2FA26
:1030C0001699081A029908440B90FDF7DBFA0A904A
:1030D000109800680C3009900B9840F20801C2F279
:1030E0000001096823225143090D48430C90FFE772
:1030F0001098006880680F9908400E99884274D033
:10310000FFE70F98B0F5C06F0CD1FFE70E980028CD
:1031100008D1FFE7099800788DF823009DF8230077
:103120000190FFE70D98013000285DD0FFE7FDF723
:10313000A9FADDF828E0A0EB0E00DDF82CE07045E0
:1031400004D2FFE70B98002842D1FFE710980068EF
:10315000416821F0E001416010984068B0F5827F3D
:1031600013D1FFE710988068B0F5004F06D0FFE755
:1031700010988068B0F5806F07D1FFE7109800685D
:10318000016821F040010160FFE71098806AB0F506
:10319000005F0FD1FFE7FFE710980068016821F496
:1031A0000051016010980068016841F4005101600D
:1031B000FFE7FFE71098012180F85D10FFE7109806
:1031C000002180F85C10FFE703208DF8470010E035
:1031D0000C98002803D1FFE700200B9003E00C9827
:1031E00001380C90FFE7FFE782E700208DF84700E9
:1031F000FFE79DF8470012B070BD000070B58EB0BB
:10320000DDF848C09E4614460D4606460C900B91CC
:103210008DF82B2009930998CDF814C0CDF810E053
:103220000394029501960090FDF72CFA1299081A62
:10323000009908440790FDF725FA0690079840F298
:103240000801C2F200010968C1F3CB31484308907C
:10325000FFE70C98006880680B990840401AB0FAA4
:1032600080F040099DF82B10884263D0FFE7099851
:10327000013000285DD0FFE7FDF704FADDF818E023
:10328000A0EB0E00DDF81CE0704504D2FFE70798C4
:10329000002842D1FFE70C980068416821F0E00166
:1032A00041600C984068B0F5827F13D1FFE70C981D
:1032B0008068B0F5004F06D0FFE70C988068B0F545
:1032C000806F07D1FFE70C980068016821F040018A
:1032D0000160FFE70C98806AB0F5005F0FD1FFE74F
:1032E000FFE70C980068016821F4005101600C9818
:1032F0000068016841F400510160FFE7FFE70C98A6
:10330000012180F85D10FFE70C98002180F85C1027
:10331000FFE703208DF8370010E00898002803D15C
:10332000FFE70020079003E0089801380890FFE7C6
:10333000FFE78EE700208DF83700FFE79DF83700A4
:103340000EB070BD7047000080B584B00146029099
:1033500002980138B0F1807F019103D3FFE701208B
:1033600003901BE0029801384EF21401CEF20001E6
:1033700008604FF0FF300F2100F0DCF84EF218002B
:10338000CEF20000002101604EF21000CEF20000EB
:103390004FF0070EC0F800E00391FFE7039804B078
:1033A00080BD000080B5FDF779F980BD80B59CB087
:1033B0000AA84821FCF7F7FE002009900890079022
:1033C0000690059004900390FDF722FA1020FFF775
:1033D00079F8FFE740F20040C5F6000001680122DD
:1033E00062F34A210160006800F4C0600290029814
:1033F0000190FFE706200A9000200B9001210C911C
:103400004FF480710D9140210E910221159116917A
:103410001790082018904FF4C02019904FF0C0402A
:103420001B904FF0C0601A900AA8FDF7D9FD002844
:1034300003D0FFE7FCF7D8FEFFE76F2003900320DF
:10344000049000200590069007900890099003A82A
:103450000121FDF787FB002803D0FFE7FCF7C4FE3E
:10346000FFE71CB080BD00004EF68850CEF2000091
:10347000016841F4700101604FF0B040016841F013
:10348000010101600821C5F600014FF4E0220A6045
:1034900001684FF6FB62CFF6F622114001609421DD
:1034A000C5F600010A6822F005020A609821C5F6F7
:1034B00000010A6822F001020A600C21C5F6000131
:1034C00041F20002C2F204220A601021C5F6000196
:1034D0000A60016821F4802101601820C5F600000F
:1034E0000021016070470000FFE7FEE782B001465F
:1034F0008DF807009DF90700002800910FDBFFE71A
:103500009DF9070000F01F01012202FA01F14009B4
:103510004EF20012CEF2000242F82010FFE702B095
:10352000704700004EF60C50CEF200000068C0F369
:103530000220704784B00A4603468DF80F000291BE
:103540009DF90F000028019200930ADBFFE7029823
:1035500000019DF90F104EF20042CEF20002885495
:103560000BE0029800019DF80F1001F00F014EF6DC
:103570001452CEF200028854FFE704B070470000F6
:1035800084B001460390039800F0070001904EF6C6
:103590000C50CEF2000002680292029A4FF6FF032E
:1035A0001A400292029A019B42EA03220023C0F2CF
:1035B000FA531A430292029A0260009104B07047D3
:1035C00080B590B000200F900890FDF775F8079037
:1035D000FFF7ECFEFFF73EFAFFF784F9FFF7ACF9CF
:1035E000FFF7C8F908988DF83B00FFE74FF09040CF
:1035F0004FF40071002206900591FDF723F843F285
:103600007061C0F600010DF12700142204900392AE
:10361000FCF7B0FD40F24001C2F200014FF47A73B2
:10362000029008460499039AFEF75AFC0122069973
:10363000019008460599FDF705F84FF47A60FCF70C
:1036400037FED3E702E008C8121F08C1002AFAD1EA
:1036500070477047002001E001C1121F002AFBD112
:1036600070470000060000000C0000001000000081
:103670009F0000009F0000009F0000009F000000CE
:103680009F00000001000000030000000500000092
:103690000100000001000000060000000A00000018
:1036A00020000000020000000400000008000000EC
:1036B0001000000040000000800000000001000039
:1036C00000020000A0860100400D0300801A0600E1
:1036D00000350C0040420F0080841E0000093D00B0
:1036E00000127A000024F40000366E010048E80160
:1036F000006CDC0200000000000000000000000080
:10370000000000001200000024000000360000004D
:103710004000000000000000010000000200000066
:1037200003000000483700080800002010000000D7
:1037300044360008583700081800002090040000A4
:10374000543600080000000000093D0001000000A0
:08375000100000000000000061
:040000050800013DB1
:00000001FF
